{
  "address": "0x4c7A62019930bBbF3395374684d3F0F13902d2aC",
  "abi": [
    {
      "inputs": [],
      "stateMutability": "nonpayable",
      "type": "constructor"
    },
    {
      "inputs": [
        {
          "internalType": "address",
          "name": "spender",
          "type": "address"
        },
        {
          "internalType": "uint256",
          "name": "allowance",
          "type": "uint256"
        },
        {
          "internalType": "uint256",
          "name": "needed",
          "type": "uint256"
        }
      ],
      "name": "ERC20InsufficientAllowance",
      "type": "error"
    },
    {
      "inputs": [
        {
          "internalType": "address",
          "name": "sender",
          "type": "address"
        },
        {
          "internalType": "uint256",
          "name": "balance",
          "type": "uint256"
        },
        {
          "internalType": "uint256",
          "name": "needed",
          "type": "uint256"
        }
      ],
      "name": "ERC20InsufficientBalance",
      "type": "error"
    },
    {
      "inputs": [
        {
          "internalType": "address",
          "name": "approver",
          "type": "address"
        }
      ],
      "name": "ERC20InvalidApprover",
      "type": "error"
    },
    {
      "inputs": [
        {
          "internalType": "address",
          "name": "receiver",
          "type": "address"
        }
      ],
      "name": "ERC20InvalidReceiver",
      "type": "error"
    },
    {
      "inputs": [
        {
          "internalType": "address",
          "name": "sender",
          "type": "address"
        }
      ],
      "name": "ERC20InvalidSender",
      "type": "error"
    },
    {
      "inputs": [
        {
          "internalType": "address",
          "name": "spender",
          "type": "address"
        }
      ],
      "name": "ERC20InvalidSpender",
      "type": "error"
    },
    {
      "anonymous": false,
      "inputs": [
        {
          "indexed": true,
          "internalType": "address",
          "name": "owner",
          "type": "address"
        },
        {
          "indexed": true,
          "internalType": "address",
          "name": "spender",
          "type": "address"
        },
        {
          "indexed": false,
          "internalType": "uint256",
          "name": "value",
          "type": "uint256"
        }
      ],
      "name": "Approval",
      "type": "event"
    },
    {
      "anonymous": false,
      "inputs": [
        {
          "indexed": true,
          "internalType": "address",
          "name": "from",
          "type": "address"
        },
        {
          "indexed": true,
          "internalType": "address",
          "name": "to",
          "type": "address"
        },
        {
          "indexed": false,
          "internalType": "uint256",
          "name": "value",
          "type": "uint256"
        }
      ],
      "name": "Transfer",
      "type": "event"
    },
    {
      "inputs": [
        {
          "internalType": "address",
          "name": "tokenA",
          "type": "address"
        },
        {
          "internalType": "address",
          "name": "tokenB",
          "type": "address"
        },
        {
          "internalType": "uint256",
          "name": "amountADesired",
          "type": "uint256"
        },
        {
          "internalType": "uint256",
          "name": "amountBDesired",
          "type": "uint256"
        },
        {
          "internalType": "uint256",
          "name": "amountAMin",
          "type": "uint256"
        },
        {
          "internalType": "uint256",
          "name": "amountBMin",
          "type": "uint256"
        },
        {
          "internalType": "address",
          "name": "to",
          "type": "address"
        },
        {
          "internalType": "uint256",
          "name": "deadline",
          "type": "uint256"
        }
      ],
      "name": "addLiquidity",
      "outputs": [
        {
          "internalType": "uint256",
          "name": "amountA",
          "type": "uint256"
        },
        {
          "internalType": "uint256",
          "name": "amountB",
          "type": "uint256"
        },
        {
          "internalType": "uint256",
          "name": "liquidity",
          "type": "uint256"
        }
      ],
      "stateMutability": "nonpayable",
      "type": "function"
    },
    {
      "inputs": [
        {
          "internalType": "address",
          "name": "owner",
          "type": "address"
        },
        {
          "internalType": "address",
          "name": "spender",
          "type": "address"
        }
      ],
      "name": "allowance",
      "outputs": [
        {
          "internalType": "uint256",
          "name": "",
          "type": "uint256"
        }
      ],
      "stateMutability": "view",
      "type": "function"
    },
    {
      "inputs": [
        {
          "internalType": "address",
          "name": "spender",
          "type": "address"
        },
        {
          "internalType": "uint256",
          "name": "value",
          "type": "uint256"
        }
      ],
      "name": "approve",
      "outputs": [
        {
          "internalType": "bool",
          "name": "",
          "type": "bool"
        }
      ],
      "stateMutability": "nonpayable",
      "type": "function"
    },
    {
      "inputs": [
        {
          "internalType": "address",
          "name": "account",
          "type": "address"
        }
      ],
      "name": "balanceOf",
      "outputs": [
        {
          "internalType": "uint256",
          "name": "",
          "type": "uint256"
        }
      ],
      "stateMutability": "view",
      "type": "function"
    },
    {
      "inputs": [],
      "name": "decimals",
      "outputs": [
        {
          "internalType": "uint8",
          "name": "",
          "type": "uint8"
        }
      ],
      "stateMutability": "view",
      "type": "function"
    },
    {
      "inputs": [
        {
          "internalType": "uint256",
          "name": "amountIn",
          "type": "uint256"
        },
        {
          "internalType": "uint256",
          "name": "reserveIn",
          "type": "uint256"
        },
        {
          "internalType": "uint256",
          "name": "reserveOut",
          "type": "uint256"
        }
      ],
      "name": "getAmountOut",
      "outputs": [
        {
          "internalType": "uint256",
          "name": "amountOut",
          "type": "uint256"
        }
      ],
      "stateMutability": "pure",
      "type": "function"
    },
    {
      "inputs": [
        {
          "internalType": "address",
          "name": "tokenA",
          "type": "address"
        },
        {
          "internalType": "address",
          "name": "tokenB",
          "type": "address"
        }
      ],
      "name": "getPrice",
      "outputs": [
        {
          "internalType": "uint256",
          "name": "price",
          "type": "uint256"
        }
      ],
      "stateMutability": "view",
      "type": "function"
    },
    {
      "inputs": [],
      "name": "name",
      "outputs": [
        {
          "internalType": "string",
          "name": "",
          "type": "string"
        }
      ],
      "stateMutability": "view",
      "type": "function"
    },
    {
      "inputs": [
        {
          "internalType": "address",
          "name": "tokenA",
          "type": "address"
        },
        {
          "internalType": "address",
          "name": "tokenB",
          "type": "address"
        },
        {
          "internalType": "uint256",
          "name": "liquidity",
          "type": "uint256"
        },
        {
          "internalType": "uint256",
          "name": "amountAMin",
          "type": "uint256"
        },
        {
          "internalType": "uint256",
          "name": "amountBMin",
          "type": "uint256"
        },
        {
          "internalType": "address",
          "name": "to",
          "type": "address"
        },
        {
          "internalType": "uint256",
          "name": "deadline",
          "type": "uint256"
        }
      ],
      "name": "removeLiquidity",
      "outputs": [
        {
          "internalType": "uint256",
          "name": "amountA",
          "type": "uint256"
        },
        {
          "internalType": "uint256",
          "name": "amountB",
          "type": "uint256"
        }
      ],
      "stateMutability": "nonpayable",
      "type": "function"
    },
    {
      "inputs": [
        {
          "internalType": "uint256",
          "name": "amountIn",
          "type": "uint256"
        },
        {
          "internalType": "uint256",
          "name": "amountOutMin",
          "type": "uint256"
        },
        {
          "internalType": "address[]",
          "name": "path",
          "type": "address[]"
        },
        {
          "internalType": "address",
          "name": "to",
          "type": "address"
        },
        {
          "internalType": "uint256",
          "name": "deadline",
          "type": "uint256"
        }
      ],
      "name": "swapExactTokensForTokens",
      "outputs": [
        {
          "internalType": "uint256[]",
          "name": "amounts",
          "type": "uint256[]"
        }
      ],
      "stateMutability": "nonpayable",
      "type": "function"
    },
    {
      "inputs": [],
      "name": "symbol",
      "outputs": [
        {
          "internalType": "string",
          "name": "",
          "type": "string"
        }
      ],
      "stateMutability": "view",
      "type": "function"
    },
    {
      "inputs": [],
      "name": "totalSupply",
      "outputs": [
        {
          "internalType": "uint256",
          "name": "",
          "type": "uint256"
        }
      ],
      "stateMutability": "view",
      "type": "function"
    },
    {
      "inputs": [
        {
          "internalType": "address",
          "name": "to",
          "type": "address"
        },
        {
          "internalType": "uint256",
          "name": "value",
          "type": "uint256"
        }
      ],
      "name": "transfer",
      "outputs": [
        {
          "internalType": "bool",
          "name": "",
          "type": "bool"
        }
      ],
      "stateMutability": "nonpayable",
      "type": "function"
    },
    {
      "inputs": [
        {
          "internalType": "address",
          "name": "from",
          "type": "address"
        },
        {
          "internalType": "address",
          "name": "to",
          "type": "address"
        },
        {
          "internalType": "uint256",
          "name": "value",
          "type": "uint256"
        }
      ],
      "name": "transferFrom",
      "outputs": [
        {
          "internalType": "bool",
          "name": "",
          "type": "bool"
        }
      ],
      "stateMutability": "nonpayable",
      "type": "function"
    }
  ],
  "transactionHash": "0x58bbb7b203c603997051df09d9108ceee09448b4a8c299ec675106753c9b1ac7",
  "args": [],
  "numDeployments": 1,
  "solcInputHash": "737e53a6d176134928e25dced2fd76ed",
  "bytecode": "0x60806040523480156200001157600080fd5b50604051806040016040528060098152602001684c697175696469747960b81b8152506040518060400160405280600281526020016104c560f41b81525081600390816200006091906200011d565b5060046200006f82826200011d565b505050620001e9565b634e487b7160e01b600052604160045260246000fd5b600181811c90821680620000a357607f821691505b602082108103620000c457634e487b7160e01b600052602260045260246000fd5b50919050565b601f8211156200011857600081815260208120601f850160051c81016020861015620000f35750805b601f850160051c820191505b818110156200011457828155600101620000ff565b5050505b505050565b81516001600160401b0381111562000139576200013962000078565b62000151816200014a84546200008e565b84620000ca565b602080601f831160018114620001895760008415620001705750858301515b600019600386901b1c1916600185901b17855562000114565b600085815260208120601f198616915b82811015620001ba5788860151825594840194600190910190840162000199565b5085821015620001d95787850151600019600388901b60f8161c191681555b5050505050600190811b01905550565b611ddf80620001f96000396000f3fe608060405234801561001057600080fd5b50600436106100ea5760003560e01c806370a082311161008c578063ac41865a11610066578063ac41865a146101db578063baa2abde146101ee578063dd62ed3e14610216578063e8e337001461024f57600080fd5b806370a082311461019757806395d89b41146101c0578063a9059cbb146101c857600080fd5b806318160ddd116100c857806318160ddd1461014d57806323b872dd14610155578063313ce5671461016857806338ed17391461017757600080fd5b8063054d50d4146100ef57806306fdde0314610115578063095ea7b31461012a575b600080fd5b6101026100fd3660046118eb565b61027d565b6040519081526020015b60405180910390f35b61011d61034e565b60405161010c9190611917565b61013d610138366004611981565b6103e0565b604051901515815260200161010c565b600254610102565b61013d6101633660046119ab565b6103fa565b6040516012815260200161010c565b61018a6101853660046119e7565b61041e565b60405161010c9190611a89565b6101026101a5366004611acd565b6001600160a01b031660009081526020819052604090205490565b61011d6108a6565b61013d6101d6366004611981565b6108b5565b6101026101e9366004611ae8565b6108c3565b6102016101fc366004611b1b565b610ad6565b6040805192835260208301919091520161010c565b610102610224366004611ae8565b6001600160a01b03918216600090815260016020908152604080832093909416825291909152205490565b61026261025d366004611b85565b610efe565b6040805193845260208401929092529082015260600161010c565b60008084116102d35760405162461bcd60e51b815260206004820152601960248201527f496e73756666696369656e7420696e70757420616d6f756e740000000000000060448201526064015b60405180910390fd5b6000831180156102e35750600082115b6103285760405162461bcd60e51b8152602060048201526016602482015275496e73756666696369656e74206c697175696469747960501b60448201526064016102ca565b6103328484611c0f565b61033c8386611c22565b6103469190611c4f565b949350505050565b60606003805461035d90611c71565b80601f016020809104026020016040519081016040528092919081815260200182805461038990611c71565b80156103d65780601f106103ab576101008083540402835291602001916103d6565b820191906000526020600020905b8154815290600101906020018083116103b957829003601f168201915b5050505050905090565b6000336103ee8185856113f4565b60019150505b92915050565b600033610408858285611406565b610413858585611484565b506001949350505050565b6060814211156104405760405162461bcd60e51b81526004016102ca90611cab565b6000871180156104505750600086115b61048d5760405162461bcd60e51b815260206004820152600e60248201526d416d6f756e74206973207a65726f60901b60448201526064016102ca565b6002841480156104cb57506000858582816104aa576104aa611ccc565b90506020020160208101906104bf9190611acd565b6001600160a01b031614155b801561050857506000858560018181106104e7576104e7611ccc565b90506020020160208101906104fc9190611acd565b6001600160a01b031614155b6105485760405162461bcd60e51b815260206004820152601160248201527014185d1a081a5cc81b9bdd081d985b1a59607a1b60448201526064016102ca565b6001600160a01b03831661056e5760405162461bcd60e51b81526004016102ca90611ce2565b60008585600081811061058357610583611ccc565b90506020020160208101906105989190611acd565b6040516370a0823160e01b81523060048201526001600160a01b0391909116906370a0823190602401602060405180830381865afa1580156105de573d6000803e3d6000fd5b505050506040513d601f19601f820116820180604052508101906106029190611d19565b905060008686600181811061061957610619611ccc565b905060200201602081019061062e9190611acd565b6040516370a0823160e01b81523060048201526001600160a01b0391909116906370a0823190602401602060405180830381865afa158015610674573d6000803e3d6000fd5b505050506040513d601f19601f820116820180604052508101906106989190611d19565b905060006106a78a848461027d565b9050888110156106f95760405162461bcd60e51b815260206004820152601a60248201527f496e73756666696369656e74206f757470757420616d6f756e7400000000000060448201526064016102ca565b8787600081811061070c5761070c611ccc565b90506020020160208101906107219190611acd565b6040516323b872dd60e01b8152336004820152306024820152604481018c90526001600160a01b0391909116906323b872dd906064016020604051808303816000875af1158015610776573d6000803e3d6000fd5b505050506040513d601f19601f8201168201806040525081019061079a9190611d32565b50878760018181106107ae576107ae611ccc565b90506020020160208101906107c39190611acd565b60405163a9059cbb60e01b81526001600160a01b03888116600483015260248201849052919091169063a9059cbb906044016020604051808303816000875af1158015610814573d6000803e3d6000fd5b505050506040513d601f19601f820116820180604052508101906108389190611d32565b506040805160028082526060820183529091602083019080368337019050509350898460008151811061086d5761086d611ccc565b602002602001018181525050808460018151811061088d5761088d611ccc565b6020026020010181815250505050509695505050505050565b60606004805461035d90611c71565b6000336103ee818585611484565b60008282806001600160a01b0316826001600160a01b0316036108f85760405162461bcd60e51b81526004016102ca90611d54565b6001600160a01b0382161580159061091857506001600160a01b03811615155b6109345760405162461bcd60e51b81526004016102ca90611d81565b6040516370a0823160e01b81523060048201526000906001600160a01b038716906370a0823190602401602060405180830381865afa15801561097b573d6000803e3d6000fd5b505050506040513d601f19601f8201168201806040525081019061099f9190611d19565b9050600081116109f15760405162461bcd60e51b815260206004820152601760248201527f496e73756666696369656e74207265736572766573204100000000000000000060448201526064016102ca565b6040516370a0823160e01b81523060048201526000906001600160a01b038716906370a0823190602401602060405180830381865afa158015610a38573d6000803e3d6000fd5b505050506040513d601f19601f82011682018060405250810190610a5c9190611d19565b905060008111610aae5760405162461bcd60e51b815260206004820152601760248201527f496e73756666696369656e74207265736572766573204200000000000000000060448201526064016102ca565b81610ac182670de0b6b3a7640000611c22565b610acb9190611c4f565b979650505050505050565b6000808888806001600160a01b0316826001600160a01b031603610b0c5760405162461bcd60e51b81526004016102ca90611d54565b6001600160a01b03821615801590610b2c57506001600160a01b03811615155b610b485760405162461bcd60e51b81526004016102ca90611d81565b84421115610b685760405162461bcd60e51b81526004016102ca90611cab565b60008911610bac5760405162461bcd60e51b81526020600482015260116024820152704c6971756964697479206973207a65726f60781b60448201526064016102ca565b6001600160a01b038616610bd25760405162461bcd60e51b81526004016102ca90611ce2565b33600090815260208190526040902054891115610c575760405162461bcd60e51b815260206004820152603760248201527f596f752061726520747279696e6720746f207769746864726177206d6f72652060448201527f6c6971756964697479207468616e20796f75206861766500000000000000000060648201526084016102ca565b6040516370a0823160e01b81523060048201526000906001600160a01b038d16906370a0823190602401602060405180830381865afa158015610c9e573d6000803e3d6000fd5b505050506040513d601f19601f82011682018060405250810190610cc29190611d19565b6040516370a0823160e01b81523060048201529091506000906001600160a01b038d16906370a0823190602401602060405180830381865afa158015610d0c573d6000803e3d6000fd5b505050506040513d601f19601f82011682018060405250810190610d309190611d19565b90506000610d3d60025490565b905080610d4a848e611c22565b610d549190611c4f565b965080610d61838e611c22565b610d6b9190611c4f565b95508a871015610db45760405162461bcd60e51b8152602060048201526014602482015273496e73756666696369656e7420616d6f756e744160601b60448201526064016102ca565b89861015610dfb5760405162461bcd60e51b815260206004820152601460248201527324b739bab33334b1b4b2b73a1030b6b7bab73a2160611b60448201526064016102ca565b60405163a9059cbb60e01b81526001600160a01b038a81166004830152602482018990528f169063a9059cbb906044016020604051808303816000875af1158015610e4a573d6000803e3d6000fd5b505050506040513d601f19601f82011682018060405250810190610e6e9190611d32565b5060405163a9059cbb60e01b81526001600160a01b038a81166004830152602482018890528e169063a9059cbb906044016020604051808303816000875af1158015610ebe573d6000803e3d6000fd5b505050506040513d601f19601f82011682018060405250810190610ee29190611d32565b50610eed338d6114e3565b505050505097509795505050505050565b60008060008a8a806001600160a01b0316826001600160a01b031603610f365760405162461bcd60e51b81526004016102ca90611d54565b6001600160a01b03821615801590610f5657506001600160a01b03811615155b610f725760405162461bcd60e51b81526004016102ca90611d81565b85421115610f925760405162461bcd60e51b81526004016102ca90611cab565b60008b118015610fa2575060008a115b610fe75760405162461bcd60e51b81526020600482015260166024820152754465736972656420616d6f756e74206973207a65726f60501b60448201526064016102ca565b600089118015610ff75750600088115b6110385760405162461bcd60e51b81526020600482015260126024820152714d696e20616d6f756e74206973207a65726f60701b60448201526064016102ca565b6001600160a01b03871661105e5760405162461bcd60e51b81526004016102ca90611ce2565b6040516370a0823160e01b81523060048201526000906001600160a01b038f16906370a0823190602401602060405180830381865afa1580156110a5573d6000803e3d6000fd5b505050506040513d601f19601f820116820180604052508101906110c99190611d19565b6040516370a0823160e01b81523060048201529091506000906001600160a01b038f16906370a0823190602401602060405180830381865afa158015611113573d6000803e3d6000fd5b505050506040513d601f19601f820116820180604052508101906111379190611d19565b905081158015611145575080155b15611169578c96508b955061116261115d8789611c22565b61151d565b945061127d565b600082828f6111789190611c22565b6111829190611c4f565b90508c81116111de578a8110156111d35760405162461bcd60e51b8152602060048201526015602482015274125b9cdd59999a58da595b9d081088185b5bdd5b9d605a1b60448201526064016102ca565b8d9750809650611247565b600082848f6111ed9190611c22565b6111f79190611c4f565b90508c8110156112415760405162461bcd60e51b8152602060048201526015602482015274125b9cdd59999a58da595b9d081048185b5bdd5b9d605a1b60448201526064016102ca565b97508c96505b61127983611255888b611c22565b61125f9190611c4f565b8361126a898b611c22565b6112749190611c4f565b61160c565b9550505b600085116112cd5760405162461bcd60e51b815260206004820152601d60248201527f496e73756666696369656e74206c6971756964697479206d696e74656400000060448201526064016102ca565b8e6001600160a01b03166323b872dd33308a6040518463ffffffff1660e01b815260040161131c939291906001600160a01b039384168152919092166020820152604081019190915260600190565b6020604051808303816000875af115801561133b573d6000803e3d6000fd5b505050506040513d601f19601f8201168201806040525081019061135f9190611d32565b506040516323b872dd60e01b8152336004820152306024820152604481018790526001600160a01b038f16906323b872dd906064016020604051808303816000875af11580156113b3573d6000803e3d6000fd5b505050506040513d601f19601f820116820180604052508101906113d79190611d32565b506113e28986611622565b50505050985098509895505050505050565b6114018383836001611658565b505050565b6001600160a01b03838116600090815260016020908152604080832093861683529290522054600019811461147e578181101561146f57604051637dc7a0d960e11b81526001600160a01b038416600482015260248101829052604481018390526064016102ca565b61147e84848484036000611658565b50505050565b6001600160a01b0383166114ae57604051634b637e8f60e11b8152600060048201526024016102ca565b6001600160a01b0382166114d85760405163ec442f0560e01b8152600060048201526024016102ca565b61140183838361172d565b6001600160a01b03821661150d57604051634b637e8f60e11b8152600060048201526024016102ca565b6115198260008361172d565b5050565b60008160000361152f57506000919050565b6000600161153c84611857565b901c6001901b9050600181848161155557611555611c39565b048201901c9050600181848161156d5761156d611c39565b048201901c9050600181848161158557611585611c39565b048201901c9050600181848161159d5761159d611c39565b048201901c905060018184816115b5576115b5611c39565b048201901c905060018184816115cd576115cd611c39565b048201901c905060018184816115e5576115e5611c39565b048201901c9050611605818285816115ff576115ff611c39565b0461160c565b9392505050565b600081831061161b5781611605565b5090919050565b6001600160a01b03821661164c5760405163ec442f0560e01b8152600060048201526024016102ca565b6115196000838361172d565b6001600160a01b0384166116825760405163e602df0560e01b8152600060048201526024016102ca565b6001600160a01b0383166116ac57604051634a1406b160e11b8152600060048201526024016102ca565b6001600160a01b038085166000908152600160209081526040808320938716835292905220829055801561147e57826001600160a01b0316846001600160a01b03167f8c5be1e5ebec7d5bd14f71427d1e84f3dd0314c0f7b2291e5b200ac8c7c3b9258460405161171f91815260200190565b60405180910390a350505050565b6001600160a01b03831661175857806002600082825461174d9190611c0f565b909155506117ca9050565b6001600160a01b038316600090815260208190526040902054818110156117ab5760405163391434e360e21b81526001600160a01b038516600482015260248101829052604481018390526064016102ca565b6001600160a01b03841660009081526020819052604090209082900390555b6001600160a01b0382166117e657600280548290039055611805565b6001600160a01b03821660009081526020819052604090208054820190555b816001600160a01b0316836001600160a01b03167fddf252ad1be2c89b69c2b068fc378daa952ba7f163c4a11628f55a4df523b3ef8360405161184a91815260200190565b60405180910390a3505050565b600080608083901c1561186c57608092831c92015b604083901c1561187e57604092831c92015b602083901c1561189057602092831c92015b601083901c156118a257601092831c92015b600883901c156118b457600892831c92015b600483901c156118c657600492831c92015b600283901c156118d857600292831c92015b600183901c156103f45760010192915050565b60008060006060848603121561190057600080fd5b505081359360208301359350604090920135919050565b600060208083528351808285015260005b8181101561194457858101830151858201604001528201611928565b506000604082860101526040601f19601f8301168501019250505092915050565b80356001600160a01b038116811461197c57600080fd5b919050565b6000806040838503121561199457600080fd5b61199d83611965565b946020939093013593505050565b6000806000606084860312156119c057600080fd5b6119c984611965565b92506119d760208501611965565b9150604084013590509250925092565b60008060008060008060a08789031215611a0057600080fd5b8635955060208701359450604087013567ffffffffffffffff80821115611a2657600080fd5b818901915089601f830112611a3a57600080fd5b813581811115611a4957600080fd5b8a60208260051b8501011115611a5e57600080fd5b602083019650809550505050611a7660608801611965565b9150608087013590509295509295509295565b6020808252825182820181905260009190848201906040850190845b81811015611ac157835183529284019291840191600101611aa5565b50909695505050505050565b600060208284031215611adf57600080fd5b61160582611965565b60008060408385031215611afb57600080fd5b611b0483611965565b9150611b1260208401611965565b90509250929050565b600080600080600080600060e0888a031215611b3657600080fd5b611b3f88611965565b9650611b4d60208901611965565b9550604088013594506060880135935060808801359250611b7060a08901611965565b915060c0880135905092959891949750929550565b600080600080600080600080610100898b031215611ba257600080fd5b611bab89611965565b9750611bb960208a01611965565b965060408901359550606089013594506080890135935060a08901359250611be360c08a01611965565b915060e089013590509295985092959890939650565b634e487b7160e01b600052601160045260246000fd5b808201808211156103f4576103f4611bf9565b80820281158282048414176103f4576103f4611bf9565b634e487b7160e01b600052601260045260246000fd5b600082611c6c57634e487b7160e01b600052601260045260246000fd5b500490565b600181811c90821680611c8557607f821691505b602082108103611ca557634e487b7160e01b600052602260045260246000fd5b50919050565b602080825260079082015266115e1c1a5c995960ca1b604082015260600190565b634e487b7160e01b600052603260045260246000fd5b60208082526018908201527f5468652027746f272061646472657373206973207a65726f0000000000000000604082015260600190565b600060208284031215611d2b57600080fd5b5051919050565b600060208284031215611d4457600080fd5b8151801515811461160557600080fd5b6020808252601390820152724964656e746963616c2061646472657373657360681b604082015260600190565b6020808252600e908201526d5a65726f2061646472657373657360901b60408201526060019056fea2646970667358221220f7de06293d79035df0d801ef7b17c9739a3d3eb31915d23a07a820d920a6076c64736f6c63430008140033",
  "devdoc": {
    "author": "Ral Medina",
    "errors": {
      "ERC20InsufficientAllowance(address,uint256,uint256)": [
        {
          "details": "Indicates a failure with the `spender`s `allowance`. Used in transfers.",
          "params": {
            "allowance": "Amount of tokens a `spender` is allowed to operate with.",
            "needed": "Minimum amount required to perform a transfer.",
            "spender": "Address that may be allowed to operate on tokens without being their owner."
          }
        }
      ],
      "ERC20InsufficientBalance(address,uint256,uint256)": [
        {
          "details": "Indicates an error related to the current `balance` of a `sender`. Used in transfers.",
          "params": {
            "balance": "Current balance for the interacting account.",
            "needed": "Minimum amount required to perform a transfer.",
            "sender": "Address whose tokens are being transferred."
          }
        }
      ],
      "ERC20InvalidApprover(address)": [
        {
          "details": "Indicates a failure with the `approver` of a token to be approved. Used in approvals.",
          "params": {
            "approver": "Address initiating an approval operation."
          }
        }
      ],
      "ERC20InvalidReceiver(address)": [
        {
          "details": "Indicates a failure with the token `receiver`. Used in transfers.",
          "params": {
            "receiver": "Address to which tokens are being transferred."
          }
        }
      ],
      "ERC20InvalidSender(address)": [
        {
          "details": "Indicates a failure with the token `sender`. Used in transfers.",
          "params": {
            "sender": "Address whose tokens are being transferred."
          }
        }
      ],
      "ERC20InvalidSpender(address)": [
        {
          "details": "Indicates a failure with the `spender` to be approved. Used in approvals.",
          "params": {
            "spender": "Address that may be allowed to operate on tokens without being their owner."
          }
        }
      ]
    },
    "events": {
      "Approval(address,address,uint256)": {
        "details": "Emitted when the allowance of a `spender` for an `owner` is set by a call to {approve}. `value` is the new allowance."
      },
      "Transfer(address,address,uint256)": {
        "details": "Emitted when `value` tokens are moved from one account (`from`) to another (`to`). Note that `value` may be zero."
      }
    },
    "kind": "dev",
    "methods": {
      "addLiquidity(address,address,uint256,uint256,uint256,uint256,address,uint256)": {
        "details": "Transfers the users tokens to the contract, calculates the proper liquidity      based on current reserves, and mints liquidity tokens back to the user.",
        "params": {
          "amountADesired": "Amount of token A the user wishes to supply.",
          "amountAMin": "Minimum acceptable amount of token A (slippage protection).",
          "amountBDesired": "Amount of token B the user wishes to supply.",
          "amountBMin": "Minimum acceptable amount of token B (slippage protection).",
          "deadline": "Unix timestamp after which the transaction will revert.",
          "to": "Recipient address that will receive the liquidity tokens.",
          "tokenA": "Address of a test ERC20 token (must implement IMintableERC20).",
          "tokenB": "Address of a test ERC20 token (must implement IMintableERC20)."
        },
        "returns": {
          "amountA": " Actual amount of token A added.",
          "amountB": " Actual amount of token B added.",
          "liquidity": "Amount of liquidity tokens minted."
        }
      },
      "allowance(address,address)": {
        "details": "See {IERC20-allowance}."
      },
      "approve(address,uint256)": {
        "details": "See {IERC20-approve}. NOTE: If `value` is the maximum `uint256`, the allowance is not updated on `transferFrom`. This is semantically equivalent to an infinite approval. Requirements: - `spender` cannot be the zero address."
      },
      "balanceOf(address)": {
        "details": "See {IERC20-balanceOf}."
      },
      "decimals()": {
        "details": "Returns the number of decimals used to get its user representation. For example, if `decimals` equals `2`, a balance of `505` tokens should be displayed to a user as `5.05` (`505 / 10 ** 2`). Tokens usually opt for a value of 18, imitating the relationship between Ether and Wei. This is the default value returned by this function, unless it's overridden. NOTE: This information is only used for _display_ purposes: it in no way affects any of the arithmetic of the contract, including {IERC20-balanceOf} and {IERC20-transfer}."
      },
      "getAmountOut(uint256,uint256,uint256)": {
        "details": "Uses the input amount and the current reserves to compute the expected      output amount, following the constant-product formula.",
        "params": {
          "amountIn": "Amount of input tokens supplied.",
          "reserveIn": "Current reserve of the input  token in the pool.",
          "reserveOut": "Current reserve of the output token in the pool."
        },
        "returns": {
          "amountOut": "Amount of output tokens that will be received."
        }
      },
      "getPrice(address,address)": {
        "details": "Reads the pools reserves for both tokens, performs the calculation,      and returns the current price of 'tokenA' denominated in 'tokenB'.",
        "params": {
          "tokenA": "Address of a test ERC20 token (must implement IMintableERC20).",
          "tokenB": "Address of a test ERC20 token (must implement IMintableERC20)."
        },
        "returns": {
          "price": "of one unit of 'tokenA' expressed in units of 'tokenB'."
        }
      },
      "name()": {
        "details": "Returns the name of the token."
      },
      "removeLiquidity(address,address,uint256,uint256,uint256,address,uint256)": {
        "details": "Burns the callers liquidity tokens, computes the correct amounts of      token A and token B based on current reserves, and transfers them to      the designated recipient.",
        "params": {
          "amountAMin": "Minimum acceptable amount of token A (slippage protection).",
          "amountBMin": "Minimum acceptable amount of token B (slippage protection).",
          "deadline": "Unix timestamp after which the transaction will revert.",
          "liquidity": "Amount of liquidity tokens to burn.",
          "to": "Recipient address for the withdrawn tokens.",
          "tokenA": "Address of a test ERC20 token (must implement IMintableERC20).",
          "tokenB": "Address of a test ERC20 token (must implement IMintableERC20)."
        },
        "returns": {
          "amountA": "  Actual amount of token A received.",
          "amountB": "  Actual amount of token B received."
        }
      },
      "swapExactTokensForTokens(uint256,uint256,address[],address,uint256)": {
        "details": "Transfers the specified input tokens from the caller, performs the swap      according to current pool reserves, and sends the output tokens to the      designated recipient.",
        "params": {
          "amountIn": "Exact amount of input tokens supplied by the caller.",
          "amountOutMin": "Minimum acceptable amount of output tokens (slippage protection).",
          "deadline": "Unix timestamp after which the transaction will revert.",
          "path": "Array of token addresses: [inputToken, outputToken].",
          "to": "Recipient address for the output tokens."
        },
        "returns": {
          "amounts": " Array containing the input amount and the actual output amount."
        }
      },
      "symbol()": {
        "details": "Returns the symbol of the token, usually a shorter version of the name."
      },
      "totalSupply()": {
        "details": "See {IERC20-totalSupply}."
      },
      "transfer(address,uint256)": {
        "details": "See {IERC20-transfer}. Requirements: - `to` cannot be the zero address. - the caller must have a balance of at least `value`."
      },
      "transferFrom(address,address,uint256)": {
        "details": "See {IERC20-transferFrom}. Emits an {Approval} event indicating the updated allowance. This is not required by the EIP. See the note at the beginning of {ERC20}. NOTE: Does not update the allowance if the current allowance is the maximum `uint256`. Requirements: - `from` and `to` cannot be the zero address. - `from` must have a balance of at least `value`. - the caller must have allowance for ``from``'s tokens of at least `value`."
      }
    },
    "title": "SimpleSwap",
    "version": 1
  },
  "userdoc": {
    "kind": "user",
    "methods": {
      "addLiquidity(address,address,uint256,uint256,uint256,uint256,address,uint256)": {
        "notice": "Function that lets users add liquidity for a pair of tokens in an ERC-20 pool."
      },
      "getAmountOut(uint256,uint256,uint256)": {
        "notice": "Calculates how many output tokens will be received for a given swap."
      },
      "getPrice(address,address)": {
        "notice": "Returns the price of one token in terms of another."
      },
      "removeLiquidity(address,address,uint256,uint256,uint256,address,uint256)": {
        "notice": "Allows users to withdraw liquidity from an ERC-20 pool."
      },
      "swapExactTokensForTokens(uint256,uint256,address[],address,uint256)": {
        "notice": "Swaps an exact amount of one ERC-20 token for another."
      }
    },
    "notice": "Smart contract that lets users add and remove liquidity          (Implemented with ERC20 from Openzeppelin), swap tokens,         fetch price quotes, and calculate expected output amountsreplicating         Uniswap-style functionality without relying on the Uniswap protocol.",
    "version": 1
  },
  "storageLayout": {
    "storage": [
      {
        "astId": 159,
        "contract": "contracts/SimpleSwap.sol:SimpleSwap",
        "label": "_balances",
        "offset": 0,
        "slot": "0",
        "type": "t_mapping(t_address,t_uint256)"
      },
      {
        "astId": 165,
        "contract": "contracts/SimpleSwap.sol:SimpleSwap",
        "label": "_allowances",
        "offset": 0,
        "slot": "1",
        "type": "t_mapping(t_address,t_mapping(t_address,t_uint256))"
      },
      {
        "astId": 167,
        "contract": "contracts/SimpleSwap.sol:SimpleSwap",
        "label": "_totalSupply",
        "offset": 0,
        "slot": "2",
        "type": "t_uint256"
      },
      {
        "astId": 169,
        "contract": "contracts/SimpleSwap.sol:SimpleSwap",
        "label": "_name",
        "offset": 0,
        "slot": "3",
        "type": "t_string_storage"
      },
      {
        "astId": 171,
        "contract": "contracts/SimpleSwap.sol:SimpleSwap",
        "label": "_symbol",
        "offset": 0,
        "slot": "4",
        "type": "t_string_storage"
      }
    ],
    "types": {
      "t_address": {
        "encoding": "inplace",
        "label": "address",
        "numberOfBytes": "20"
      },
      "t_mapping(t_address,t_mapping(t_address,t_uint256))": {
        "encoding": "mapping",
        "key": "t_address",
        "label": "mapping(address => mapping(address => uint256))",
        "numberOfBytes": "32",
        "value": "t_mapping(t_address,t_uint256)"
      },
      "t_mapping(t_address,t_uint256)": {
        "encoding": "mapping",
        "key": "t_address",
        "label": "mapping(address => uint256)",
        "numberOfBytes": "32",
        "value": "t_uint256"
      },
      "t_string_storage": {
        "encoding": "bytes",
        "label": "string",
        "numberOfBytes": "32"
      },
      "t_uint256": {
        "encoding": "inplace",
        "label": "uint256",
        "numberOfBytes": "32"
      }
    }
  }
}